:020000040800F2
:10000000581500209D010008291F0008890F0008CD
:10001000A11D00083B020008C146000800000000C6
:10002000000000000000000000000000F9260008A9
:10003000850B000800000000F91F0008792800085F
:10004000B7010008B7010008B7010008B7010008B0
:10005000B7010008B7010008A10B0008B7010008AC
:10006000B7010008B7010008B7010008B701000890
:10007000B7010008B7010008B7010008B701000880
:10008000B7010008B7010008B70100080000000030
:10009000000000000000000000000000B7010008A0
:1000A000B7010008B7010008B7010008B701000850
:1000B000B7010008E9280008B7010008B7010008E7
:1000C000B7010008B7010008B7010008B701000830
:1000D000B7010008B7010008B701000800000000E0
:1000E000B7010008B7010008C91F000800000000A0
:1000F000000000000000000000000000B701000840
:1001000000000000B7010008B7010008B7010008AF
:1001100000000000000000000000000000000000DF
:10012000B7010008B7010008B7010008B7010008CF
:10013000B7010008000000000000000000000000FF
:10014000000000000000000000000000B91F0008CF
:10015000B7010008B7010008B7010008B70100089F
:10016000B7010008B701000800000000000000000F
:10017000000000000000000000000000000000007F
:1001800000000000B7010008DFF80CD000F018F8FC
:1001900000480047B9480008581500200648804725
:1001A00006480047FEE7FEE7FEE7FEE7FEE7FEE75C
:1001B000FEE7FEE7FEE7FEE7812800088901000868
:1001C000064C074D06E0E06840F0010394E80700A4
:1001D00098471034AC42F6D3FFF7DAFFBC4C000866
:1001E000DC4C000870B58C1810F8015B15F00703A3
:1001F00001D110F8013B2A1106D110F8012B03E0C0
:1002000010F8016B01F8016B5B1EF9D12B0705D4C7
:100210000023521E0DD401F8013BFAE710F8013B10
:10022000CB1A921C03E013F8015B01F8015B521E2C
:10023000F9D5A142D8D3002070BD00BFFEE770B54C
:1002400006460C4604F08000802808D104F07F00A8
:1002500000EB800106F58E7000EBC10507E004F0AD
:100260007F0000EB800106F55D7000EBC10504F036
:100270007F00287004F08000C0096870294630466D
:1002800003F0C2FE002070BD70B506460C4604F0B7
:100290008000802808D104F07F0000EB800106F583
:1002A0008E7000EBC10505E004EB840106F55D707E
:1002B00000EBC1050020A87004F07F002870C4F393
:1002C000C01068702946304603F076FE002070BDED
:1002D0002DE9F04106460D4690461F4605F0800088
:1002E000802808D105F07F0000EB800106F58E70B4
:1002F00000EBC10407E005F07F0000EB800106F58C
:100300005D7000EBC10405F07F00207005F08000F7
:10031000C0096070C4F80880E770607808B1207880
:10032000E080022F01D1002020712146304603F0E9
:10033000F7FD0020BDE8F0812DE9F04105460E46AD
:100340001746984606F07F0000EB800105F55D70CA
:1003500000EBC104E760C4F814800020A061607065
:1003600006F07F002070E878012800D1276120780E
:1003700020B92146284603F0F7FC03E02146284631
:1003800003F0A3FE0020BDE8F08108B50022009232
:10039000009A61F30A12009202691268009B1A43E4
:1003A00003691A6008BD70B506460C4604F080006B
:1003B000802808D104F07F0000EB800106F58E70E4
:1003C00000EBC10505E004EB840106F55D7000EB70
:1003D000C1050120A87004F07F002870C4F3C0108C
:1003E00068702946304603F03EFE002070BD2DE9BE
:1003F000F04107460D461646984605F07F0000EB93
:10040000800107F58E7000EBC1040120607005F0DB
:100410007F002070E66026610020A061C4F814808F
:10042000207820B92146384603F09EFC03E021469F
:10043000384603F04AFE0020BDE8F0811CB50446B2
:10044000204603F05CFCE068C0680090204603F0A2
:10045000FFFF03280BD10020A0704FF40070A08094
:10046000009820F4705000F51050009009E0012031
:10047000A0704020A080009820F4705000F5A0509B
:1004800000900098E168C86000200190019820F475
:10049000005000F5005001900198E168486101208A
:1004A0001CBD0000F8B50546002400200090284639
:1004B00004F00DF8064690E006F0010000287DD01B
:1004C000E1B2284600F002FB0090009800F0010025
:1004D00030B3012000FA04F72869406BB84329695A
:1004E000486300200090009820F00100401C00901C
:1004F00005F1180050F8240000998160E1B23948F4
:100500000068426828469047E878012808D13CB93D
:1005100040F21110405D042802D1284603F0CFFCC0
:100520000098C0F3C00060B100200090009820F057
:1005300008000830009005F1180050F824000099D8
:1005400081600098C0F3001060B100200090009816
:1005500020F010001030009005F1180050F8240031
:10056000009981600098C0F3801060B10020009075
:10057000009820F040004030009005F1180050F83D
:100580002400009981600098C0F3400060B1002011
:100590000090009820F00200801C009005F11800E7
:1005A00050F82400009981600098C0F3C01028B171
:1005B0002146284600F09EFA002000E00BE0009063
:1005C000009820F080008030009005F1180050F86D
:1005D000240000998160641C7608002E7FF46CAFC3
:1005E0000120F8BD300000207CB504460025002025
:1005F0000190204603F073FF06466FE006F001000D
:10060000002869D0E9B2204603F071FF01900198FB
:1006100000F00100C8B300200190019820F0010013
:10062000401C019004F1540050F8250001998160AC
:10063000E078012817D104F1540050F82500006932
:10064000009005EB850104F55D7000EBC10080684A
:100650000099C1F31201411A05EB850204F55D70A2
:1006600000EBC2008161E9B21E48006802682046C2
:100670009047E078012808D13DB940F21110005DA3
:10068000052802D1204603F01AFC0198C0F340006F
:1006900060B100200190019820F00200801C0190C0
:1006A00004F1540050F82500019981600198C0F3CD
:1006B000C00088B10B480068816820468847002048
:1006C0000190019820F008000830019004F15400D6
:1006D00050F82500019981606D1C7608002E8DD19F
:1006E00001207CBD300000203EB50446A07A70B1E8
:1006F000D4F80C010090009820F0020000900098BF
:1007000020F0010000900099D4F80C010160002055
:100710000190019820F00100401C01902069406880
:10072000019988432169486008480068816920462A
:10073000884700200290029820F0004000F100401D
:1007400002900298E168486101203EBD300000201F
:100750007CB5044600200190019820F01000103074
:100760000190E068806901998843E1688861E068E8
:10077000006A0090009800F00F0000EB800104F583
:100780005D7000EBC1050098C0F3434007282DD2EF
:10079000DFE800F02C04051D1E2C1F0027E0009848
:1007A000C0F30A1090B10098C0F30A122046E9681D
:1007B00003F0A7FEE8680099C1F30A110844E86055
:1007C000A8690099C1F30A110844A8610FE00EE07E
:1007D0000DE0082204F2CC51204603F092FEA869F5
:1007E0000099C1F30A110844A86100E000BF00BFEE
:1007F000E068806901990843E168886101207CBD57
:1008000038B5044608480068C1682046884700207B
:100810000090009820F00800083000900098E168EF
:100820004861012038BD0000300000201FB504469B
:10083000002000904FF48970005D0090234800680C
:100840004169204688472069806801900020039014
:10085000039820F4006000F5006003900398E168BD
:100860004861A07A70B3019800F0010050B340F2E3
:100870001510005D012825D19DF80000032821D125
:1008800000200290029820F00100401C0290D4F851
:100890000C01006802990843D4F80C110860029812
:1008A00020F00200801C0290D4F80C01006802992C
:1008B0000843D4F80C1108600548006840F00600B1
:1008C00003490860012004B010BD00003000002082
:1008D00010ED00E030B587B004460020029006908D
:1008E0000590049003900190029820F00100401CB4
:1008F000029020694068029988432169486000217C
:10090000204603F07BFD00250BE0FF2104F11800D9
:1009100050F82500816004F1540050F825008160F2
:100920006D1C6078A842F0D84FF0FF3120698161DA
:1009300006986FF30F00401C0690069880B200F5F1
:100940008030069006992069C161059820F0080062
:1009500008300590059820F00100401C059005988E
:1009600020F00200801C05900599206941610498DF
:1009700020F00100401C0490049820F0080008308A
:100980000490049820F00200801C049004992069CF
:100990000161206900680390039820F4FE600390D1
:1009A000039920690160204603F089FA0020019034
:1009B000019820F4805000F5805001900198E16882
:1009C000486104480068016920468847012007B053
:1009D00030BD0000300000202DE9F04106460F46F2
:1009E0003946304603F0A2FD01214FF4897081554C
:1009F0000021801C8155002511E005EB850106F5DD
:100A00008E7000EBC104012060702570E58000202D
:100A1000E0704020A0600020E06060616D1C707894
:100A2000A842EAD8002510E005EB850106F55D70C7
:100A300000EBC104002060702570E580E07040206C
:100A4000A0600020E06060616D1C7078A842EBD867
:100A5000304603F043F9304602F070FF0021304683
:100A600003F0CCFD304602F0FCFF304603F08FFC73
:100A7000BDE8F08138B504460020009007480068C2
:100A8000C16920468847009820F4801000F5801046
:100A900000900098E1684861012038BD30000020D6
:100AA00038B504460020009007480068016A2046D7
:100AB0008847009820F4001000F50010009000987E
:100AC000E1684861012038BD3000002030B50246A1
:100AD00015692B6915696C6B24FA01F505F00105A0
:100AE00043EAC51302F1180555F82150AD6805EA2F
:100AF000030030BD2DE9F84307460E4600250020CF
:100B0000009006EB860107F58E7000EBC104D4E976
:100B10000501451AA068A84200D2A568E81C4FEA62
:100B2000900807F1180050F82600806900901BE03B
:100B3000D4E90501451AA068A84200D2A568E81CBE
:100B40004FEA9008ABB2F2B23846E16803F098FD84
:100B5000E0682844E060A0692844A06107F118001B
:100B600050F8260080690090009880B2404506D970
:100B7000D4E90510884202D260690028D8D101204A
:100B8000BDE8F8837047000001B50449009808608B
:100B900000BF024800680028FBD108BD14010020F6
:100BA00010B501200249087000F004F810BD0000E3
:100BB000100100200149086070470000143C01400A
:100BC000002123498279002A3AD00A461268036834
:100BD0009A430B461A600A1D126803689A430B1D5C
:100BE0001A60027911440A6803681A430A60184AB5
:100BF0000832126803689A43154B08331A601A1DAD
:100C0000126803689A43124B0C331A604279102A17
:100C10000ED11A1F126803681A430D4B08331A606D
:100C20001A1D126803681A43094B0C331A600DE051
:100C30000749427911440A6803681A430A6005E0CB
:100C4000027911440A6803689A430A6070470000F9
:100C5000003C014070B504460A460026092502B949
:100C600009E0012A01D1160205E0022A01D116028B
:100C700001E04FF4407600F083F80546092D28D1B5
:100C80001548006820F44070134908600846006861
:100C9000304308600846006820F0F8000860084605
:100CA000006844F0020108430B49086008460068E8
:100CB00040F48030086000F063F80546064800689C
:100CC00020F00200044908600846006820F0F8009F
:100CD0000860284670BD0000103C024009201349FE
:100CE000096801F48031B1F5803F01D101201CE099
:100CF0000E49096801F0100109B1062015E00B4901
:100D0000096801F4807109B102200EE00749096801
:100D100001F0EF0109B1072007E00449096801F07B
:100D2000020109B1082000E0092070470C3C024094
:100D300030B502460C46092500F022F80546092D7B
:100D400019D10E48006820F440700C49086008462C
:100D5000006840F4007008600846006840F0010038
:100D60000860146000F00CF805460448006820F0A4
:100D7000010002490860284630BD0000103C0240D6
:100D800008B509200090FFF7A9FF009002E0FFF7E7
:100D9000A5FF00909DF800000128F8D09DF8000004
:100DA00008BD000002215820FFF754FF4FF05531D5
:100DB0000548FFF7BDFF05E0022001F027FC0520F4
:100DC000FFF7E2FEF8E70000FCFF0F08F0B50A4667
:100DD00000210023002400BF3DE0012505FA01F3B6
:100DE000156805EA03049C4234D105684F000326C8
:100DF000BE40B543056015794E00B54006683543E1
:100E000005601579012D02D01579022D16D185685E
:100E10004F000326BE40B543856055794E00B5406E
:100E2000866835438560456801268E40B543456038
:100E3000456896798E40B6B235434560C5684F0027
:100E40000326BE40B543C560D5794E00B540C6689F
:100E50003543C560491C1029BFD3F0BDF0B5002350
:100E600000244D07ED0E02FA05F3CE1000F1200527
:100E700055F826504E07F70E0F26BE40B543CF104B
:100E800000F1200646F82750CE1000F1200555F855
:100E9000265045EA0304CE1000F1200545F826400F
:100EA000F0BD0246002013690B400BB1012000E0A9
:100EB00000207047418370470183704770B5064634
:100EC0002C480078012852D02B480068B0F5006FFC
:100ED00002D100202849086027480068274909688E
:100EE000884203D100202349087070BD2248006861
:100EF00022490968884206D91F480068C0F5006089
:100F00001F49086006E01D4800681B490968401A2F
:100F10001B4908601A48006840280ED91648008806
:100F200084B24025144800684030134908601448D2
:100F300000684038124908600FE00F48008884B20A
:100F40000F48008885B20C4800680D4909680844BC
:100F50000949086000200A49086001200549087015
:100F6000084802192B4681213046FFF740FA00BF9E
:100F7000BBE700005C00002054000020500000206F
:100F8000580000206902002000BFFEE721B102885E
:100F900042F48062028004E002884FF6FF331A4078
:100FA0000280704770B5024600240025002300200F
:100FB000958A138B1B0445EA030626F07F4404EA56
:100FC00001068E4201D1012000E0002070BD002208
:100FD00021F07F42D3438382704721B1028842F0DF
:100FE0000102028004E002884FF6FE731A4002807C
:100FF0007047000010B504461348844209D101210E
:10100000480501F02BF800214FF4001001F026F8FC
:1010100018E00E48844209D10121880501F01EF82C
:1010200000214FF4800001F019F80BE008488442D9
:1010300008D10121C80501F011F800214FF400008A
:1010400001F00CF810BD00000054004000580040B2
:10105000005C004021B1028842F48072028004E00A
:1010600002884FF6FF631A400280704721B1028860
:1010700042F40072028004E002884FF6FF531A40E7
:10108000028070470CB502460020002301930093B4
:1010900000920B0F019321F07F41019B1BB1009B3C
:1010A0001433009303E0090C009B18330093009B5A
:1010B0001B680B400BB1012000E000200CBD10B5F7
:1010C00001460020002300228B8A0A8B120443EA87
:1010D000020424F07F4010BD2DE9FF4704460D4671
:1010E0000026B1460427DFF8CC80A6884FF6C070F2
:1010F0000640684600F0E2FFDDF808802E48B8FBA5
:10110000F0F01FFA80F946EA0906A68020884FF61B
:10111000FE710840208000262849286888420CD8A3
:1011200028684000B8FBF0F087B2042F00DA0427EB
:101130003E4309F10100208427E0E8884BF6FF7167
:10114000884206D1286800EB4000B8FBF0F087B277
:1011500009E0286800EBC00101EB0010B8FBF0F0DB
:1011600087B247F48047C7F30B0008B947F001077F
:1011700047F4004006434FF4967009FB00F04FF42B
:101180007A7190FBF1F0401C2084A683208840F007
:101190000100208026884FF6F5300640A88869892E
:1011A000084306432680A889298908432081BDE891
:1011B000FF87000000127A0040420F00A086010065
:1011C0000146088AC0B2704712B141F0010101E046
:1011D00001F0FE01018270470182704770B58EB048
:1011E00000240121022000F029FF1D208DF80400B9
:1011F00000208DF8050001208DF806008DF807000D
:1012000001A800F093FE3148006840083049B0FB67
:10121000F1F0401E84B24FF6FF700C900020ADF844
:101220002C00ADF83400ADF82E000BA9294801F0D0
:10123000F3FB01222146274801F0E9FB0020ADF82D
:1012400018000120ADF81A0046F2A81008900020FE
:10125000ADF8240006A91F4801F092FB00211D48AB
:1012600001F0CCFB012202211A4801F080FB012190
:10127000184801F05CFB02A800F020FF64220398EC
:10128000B0FBF2F1481EB0F1807F00D31BE0481E96
:101290004FF0E022506150170F22002807DA1307A1
:1012A0001E0E0D4B00F00F052D1F5E5503E01307BA
:1012B0001D0E0A4B1D5400BF00204FF0E02290612C
:1012C0000720106100BF0EB070BD0000200100209B
:1012D00020A107000004004018ED00E000E400E059
:1012E00038B5044601222421684600F00DF99DF826
:1012F000000000F0EF0000909DF8000020430090F7
:1013000001222421684600F063F938BD38B504464F
:1013100001222121684600F0F7F89DF8000000F056
:10132000C00000902078617808439DF800100843C1
:10133000009001222121684600F04AF938BD1CB511
:10134000044600200190009000F020F82078617899
:101350000843A1780843E17808439DF80410084346
:101360000190207961790843A17908439DF8001024
:10137000084300900122202101A800F029F9012250
:101380002321684600F024F91CBD000000B587B099
:101390000121080300F072FE0121084600F02EFE34
:1013A0000121102000F02AFE0121102000F026FE6D
:1013B0000121102000F022FE052211463D48FFF7D2
:1013C0004DFD052206213B48FFF748FD0522072178
:1013D0003848FFF743FD02208DF8180000208DF8F3
:1013E0001A0002208DF81B008DF8190020200590AE
:1013F00005A93048FFF7EAFC8020059005A92D4893
:10140000FFF7E4FC4020059005A92A48FFF7DEFC21
:10141000294801F039F80020ADF80000ADF80400CB
:10142000ADF80600ADF808004FF40070ADF80A0002
:101430001020ADF80C000020ADF80E000720ADF82C
:1014400010004FF48270ADF8020069461A4801F0AE
:1014500081F80121184801F00AF8082005900120C0
:101460008DF8180000208DF81A0002208DF8190060
:1014700005A91248FFF7AAFC08211048FFF71CFD38
:101480000120059000208DF818008DF81A00022028
:101490008DF8190000208DF81B0005A90748FFF7FB
:1014A00095FC0220059005A90448FFF78FFC07B0C2
:1014B00000BD00000000024000300140001002406A
:1014C0000EB508208DF8040080208DF80500072057
:1014D0008DF8060030208DF8070000208DF80800F8
:1014E0008DF809008DF80A0001A8FFF728FF0020F9
:1014F0008DF800008DF801006846FFF707FF102007
:10150000FFF7EEFE0EBD000070B506460C46154610
:10151000012D02DD44F0C00401E044F08004082104
:101520000A48FFF7C7FC204600F012F806E000204A
:1015300000F00EF83070681E85B2761C002DF6DCC7
:1015400008210248FFF7B8FC70BD000000100240FF
:1015500010B504464FF480501849086009E0174957
:101560000868411E154A116018B900F02BF8C0B286
:1015700010BD0221124800F0DFFF0028EFD0214605
:101580000F4800F0E5FF4FF480500C49086009E077
:101590000A490868411E094A116018B900F012F89A
:1015A000C0B2E5E70121064800F0C6FF0028EFD0F1
:1015B000034800F0CAFFC0B2DAE70000FC000020D8
:1015C0000030014010B5FFF7EDFB002010BD00001A
:1015D00070B505460E461446012C01DD46F0400666
:1015E00008210A48FFF766FC3046FFF7B1FF05E027
:1015F0002878FFF7ADFF601E84B26D1C012CF7DA6E
:1016000008210248FFF758FC70BD0000001002409E
:1016100038B504466B4601222121322000F098F9AA
:101620009DF8000000F00C000090207861780843DD
:10163000A1780843E17808439DF800100843009022
:101640006B4601222121322000F0F8FA38BD1CB58A
:10165000044600200190009000F07AF8207861782C
:101660000843A17808439DF80410084301902079AD
:1016700061790843A1790843E17808439DF8001097
:101680000843009001AB01222021322000F0D6FA5D
:101690006B4601222321322000F0D0FA1CBD00004D
:1016A00000B587B00121022000F0A8FC0121022032
:1016B00000F0A4FC042206212248FFF7CFFB0422FD
:1016C00009212048FFF7CAFB4020019002208DF835
:1016D000080001208DF80A0002208DF80900002082
:1016E0008DF80B0001A91748FFF770FB4FF400704D
:1016F000019001A91348FFF769FB0121480500F09B
:101700009DFC0020ADF810004BF6FF70ADF8120004
:101710003320ADF814004FF48060ADF816000001DE
:10172000ADF81800084803900848FFF763FC012152
:101730000648FFF752FC03A90448FFF7CDFC07B0A9
:1017400000BD000000040240A086010000540040DB
:1017500000B589B00121480500F070FC012102208C
:1017600000F04CFC0121102000F048FC0121102069
:1017700000F044FC0121102000F040FC042206216E
:101780003A48FFF76BFB042209213848FFF766FB54
:1017900002208DF8200000208DF8220002208DF814
:1017A00023008DF821004020079007A92F48FFF75C
:1017B0000DFB4FF40070079007A92C48FFF706FBBC
:1017C00000208DF820008DF822008DF823000220E3
:1017D0008DF821000420079007A92548FFF7F6FAA5
:1017E0000221042000F08AFF0420059000208DF8DB
:1017F000180008208DF8190001208DF81A0005A89E
:10180000FFF7DEF90020ADF808004BF6FF70ADF8E9
:101810000A000020ADF80C004FF48060ADF80E0017
:101820000001ADF810001348019001A91248FFF71C
:1018300053FC01211048FFF7D0FB10200790002037
:101840008DF820008DF8220002208DF82100002064
:101850008DF8230007A90648FFF7B8FA2020079063
:1018600007A90348FFF7B2FA09B000BD000402401F
:1018700000100240A0860100005400401FB5002067
:101880008DF8080050208DF8090007208DF80A0017
:1018900000208DF80E008DF80C008DF80D0008204A
:1018A0008DF80B0002A8FFF7D2FE80208DF804000F
:1018B00010208DF8050000208DF806008DF8070037
:1018C00001A8FFF7A5FE42F2107003F0D7F900203F
:1018D0008DF8030018208DF8010080208DF803009A
:1018E00000208DF80200684600F005F842F2107002
:1018F00003F0C4F91FBD3EB50446002002900190DC
:101900000090FFF725FF2078617808439DF80810C4
:1019100008430290E0789DF8041008430190A078F5
:101920009DF800100843009002AB012200213C20EA
:1019300000F084F901AB012211463C2000F07EF951
:101940006B46012202213C2000F078F93EBD0000E8
:101950002DE9FC4106460F4615461C464FF4204033
:101960000190FFF79DFE00BF4FF420400190012140
:10197000AD48FFF76FFB06E00198411E019110B9D9
:101980000020BDE8FC81A949A748FFF70BFB002810
:10199000F2D04FF42040019000223146A248FFF7D8
:1019A00013FC08E00198411E019120B9A0499E480E
:1019B000FFF70DFBD8E79F499B48FFF7F3FA002894
:1019C000F0D001219848FFF708FB39469648FFF709
:1019D00003FC4FF42040019005E00198411E019165
:1019E00008B90020CDE79349891C8F48FFF7DAFA40
:1019F0000028F2D0012D4BD100BF01218A48FFF70A
:101A000029FB00BF89498848FFF7CCFA0028F9D0A4
:101A1000012231468448FFF7D7FB4FF42040019064
:101A200008E00198411E019120B981497E48FFF7E5
:101A3000CEFAE2E780497C48FFF724FB0028F0D08B
:101A400000217948FFF7A2FA72B67748183000886B
:101A5000009001217448FFF709FB62B600BF72488D
:101A6000FFF72DFB00F040004028F8D16E48FFF74B
:101A7000A7FB207000BF6C48008800F40070B0F530
:101A8000007FF8D001216848FFF780FA012078E74D
:101A9000022D4ED100BF01216348FFF7DBFA00BFE2
:101AA00062496148FFF77EFA0028F9D001223146E9
:101AB0005D48FFF789FB40F601405B4908804FF421
:101AC0002040019008E00198411E019120B9584939
:101AD0005548FFF77CFADEE757495348FFF7D2FA3B
:101AE0000028F0D072B650481830008800900021CD
:101AF0004D48FFF74BFA62B600BF4B48FFF7DFFADD
:101B000000F004000428F8D172B601214648FFF71E
:101B1000ADFA4548103000882070641C42481030EF
:101B20000088207062B640F201403F4908800120E1
:101B300027E700BF4FF42040019001213A48FFF70A
:101B400089FA05E00198411E019108B9002018E7C3
:101B500036493548FFF726FA0028F3D04FF42040E5
:101B60000190012231463048FFF72EFB08E0019832
:101B7000411E019120B92E492B48FFF728FAD9E7D9
:101B80002A49491C2848FFF70DFA0028EFD03BE00E
:101B9000032D0ED000BF2448FFF791FA00F0040097
:101BA0000428F8D12048FFF70BFB2070641C681E46
:101BB00085B2032D28D100BF1B48FFF780FA00F043
:101BC00004000428F8D100211748FFF7DFF972B6A6
:101BD0001548FFF7F5FA2070641C01211248FFF741
:101BE00045FA1148FFF7ECFA207062B6641C00BF9A
:101BF0000D48FFF764FA00F040004028F8D10A4889
:101C00001030008820700025002DC1D100BF06488B
:101C1000008800F40070B0F5007FF8D00121024880
:101C2000FFF7B4F90120ACE60054004001000300C6
:101C30000004021082000700020000102DE9F041AC
:101C400006460F4615461C46FFF72AFD00BF4FF417
:101C500020404E49086001214D48FFF7FBF908E09C
:101C60004A490868411E494A116010B90020BDE880
:101C7000F08148494648FFF795F90028F0D0002246
:101C800031464348FFF7A0FA4FF420403F4908602F
:101C90000AE03E490868411E3C4A116020B93E49AD
:101CA0003B48FFF794F9D2E73C493948FFF77AF906
:101CB0000028EED04FF420403449086039463448BB
:101CC000FFF78AFA07E031490868411E2F4A116080
:101CD00008B90020CBE73149891C2D48FFF762F98C
:101CE0000028F0D0012D1DD14FF420402749086075
:101CF00021782748FFF770FA07E024490868411E59
:101D0000224A116008B90020B1E72449891C204803
:101D1000FFF748F90028F0D001211D48FFF7A6F988
:101D20000120A4E721781A48FFF756FA641C681EC0
:101D300085B20CE000BF1648FFF7C1F900F00400BF
:101D40000428F8D121781248FFF746FA641C2800CD
:101D5000A5F101018DB2EDD14FF420400B4908608F
:101D600007E00A490868411E084A116008B90020C6
:101D70007DE70A49891C0648FFF714F90028F0D0CE
:101D800001210348FFF772F9012070E7F4000020F9
:101D9000005400400100030000040210820007000C
:101DA00000BFFEE71CB54FF4E060009001208DF805
:101DB000040000208DF8060002208DF805000120A7
:101DC0008DF8070069460A48FFF700F84FF4807164
:101DD0000748FFF771F84FF400710548FFF76CF8FA
:101DE0004FF480610248FFF767F800F003F81CBD6C
:101DF000000C024010B5002402E000F011F8641C51
:101E0000962CFADB002402E000F04CF8641C402C15
:101E1000FADB00200149086010BD0000B00100207D
:101E200010B54FF480711D48FFF746F8012002F00D
:101E300025FF4FF400711948FFF73CF8012002F02C
:101E40001DFF4FF480611548FFF734F8012002F0C0
:101E500015FF4FF480711148FFF72CF8052002F0B0
:101E60000DFF4FF480610D48FFF726F8052002F0C2
:101E700005FF4FF480710948FFF71EF8012002F0BA
:101E8000FDFE07480068401E0549086008460068D6
:101E900010F1400F01DA4020086010BD000C024034
:101EA000B001002010B54FF480711D48FFF704F811
:101EB000012002F0E3FE4FF400711948FEF7FCFF29
:101EC000012002F0DBFE4FF480611548FEF7F2FFBF
:101ED000012002F0D3FE4FF480711148FEF7EAFFB3
:101EE000052002F0CBFE4FF480710D48FEF7E4FFB1
:101EF000052002F0C3FE4FF480610948FEF7DCFFC5
:101F0000012002F0BBFE07480068401C054908603C
:101F100008460068402801DD4020086010BD000030
:101F2000000C0240B00100207047000070B5002195
:101F300000230F22C4781CB3174C246804F4E06417
:101F4000C4F5E064C4F30721C1F10404E3B20A411B
:101F500044789C40E1B28478144021430C07210E60
:101F60000E4C05786155047804F01F050124AC403F
:101F700005786D11AD0005F1E025C5F8004109E0D7
:101F8000047804F01F050124AC40054D0678761155
:101F900045F8264070BD00000CED00E000E400E0D4
:101FA00080E100E002490143024A116070470000ED
:101FB0000000FA050CED00E010B5024801F028F829
:101FC00010BD00006C0A002010B50948807A50B19D
:101FD0000848006820F006000649086000F050FC40
:101FE000034802F032FB4FF48020FEF7E3FD10BD02
:101FF0006C0A002010ED00E07047000029B1064A8D
:1020000012680243044B1A6004E0034A12688243D8
:10201000014B1A60704700003038024029B1064A6F
:1020200012680243044B1A6004E0034A12688243B8
:10203000014B1A60704700003438024029B1064A4B
:1020400012680243044B1A6004E0034A1268824398
:10205000014B1A60704700004038024029B1064A1F
:1020600012680243044B1A6004E0034A1268824378
:10207000014B1A60704700002038024029B1064A1F
:1020800012680243044B1A6004E0034A1268824358
:10209000014B1A60704700004438024029B1064ADB
:1020A00012680243044B1A6004E0034A1268824338
:1020B000014B1A607047000024380240F0B500213F
:1020C00000220024022500260223324F3F6807F039
:1020D0000C0121B1042905D0082937D105E02E4F84
:1020E000076036E02D4F076033E02A4F3F1F3F68FF
:1020F000C7F38056274F3F1F3F6807F03F036EB17D
:10210000264FB7FBF3F7DFF88CC0ACF1040CDCF81A
:1021100000C0CCF3881C07FB0CF40CE01E4FB7FB8F
:10212000F3F7DFF870C0ACF1040CDCF800C0CCF3BE
:10213000881C07FB0CF4174F3F1F3F68C7F301478C
:102140007F1C7D00B4FBF5F7076002E0124F0760CB
:1021500000BF00BF0F4F3F6807F0F0010909104FA3
:102160007A5C0768D74047600A4F3F6807F4E05140
:10217000890A0B4F7A5C4768D7408760054F3F68F4
:1021800007F46041490B064F7A5C4768D740C76047
:10219000F0BD0000083802400024F40000127A006C
:1021A0000001002030B52DED028B85B00446B7EE5E
:1021B000000AB0EE408A01AB022223213220FFF751
:1021C000C7FB9DF8050000F0400008B1402500E085
:1021D000102504AB012228213220FFF7B9FB9DF81E
:1021E00010008DF8080004AB012229213220FFF7EE
:1021F000AFFB9DF810008DF8090004AB01222A21E5
:102200003220FFF7A5FB9DF810008DF80A0004AB03
:1022100001222B213220FFF79BFB9DF810008DF847
:102220000B0004AB01222C213220FFF791FB9DF81B
:1022300010008DF80C0004AB01222D213220FFF795
:1022400087FB9DF810008DF80D0001AB02222321C1
:102250003220FFF77DFB9DF8050000F0400020B123
:10226000B5EE000AB0EE408A20E09DF8040000F0D0
:10227000300030B1102809D020280CD0302814D1DB
:102280000EE0B7EE000AB0EE408A0EE0B6EE000AAD
:10229000B0EE408A09E0B5EE000AB0EE408A04E0F4
:1022A0009FED100AB0EE408A00BF00BF9DF8080005
:1022B0009DF8091000EB012000B220809DF80A0073
:1022C0009DF80B1000EB012000B260809DF80C001F
:1022D0009DF80D1000EB012000B2A08005B0BDEC10
:1022E000028B30BD9FCDAA3DFEB504460020009074
:1022F000002500266B46012211463C20FFF728FBF3
:1023000001AB062203213C20FFF722FB9DF80000D1
:1023100000F0E00080281DD006DC20280BD04028EB
:102320000ED0602828D110E0A02818D0C0281BD0DB
:10233000E02821D11DE040F24C454FF475761BE0BA
:1023400040F257354FF43E7616E040F29E254FF4AA
:10235000167611E04FF4E1754FF4C8760CE04FF4B7
:10236000C87540F2631607E04FF4A57540F22716D2
:1023700002E0E625CD2600BF00BF9DF805009DF8D0
:10238000041000EB012000B220809DF807009DF8AA
:10239000061000EB012000B260809DF809009DF856
:1023A000081000EB012000B2A080FEBD3EB504463F
:1023B0000020019002900090012223216846FFF73F
:1023C000A3F80622282101A8FFF79EF89DF8000037
:1023D00000F0400090B900250DE001A911F815109A
:1023E0006800401C01AA105C01EB002000B224F838
:1023F0001500681CC5B2032DEFDB11E000250DE0D0
:102400006800401C01A9085C01AA12F8151000EB35
:10241000012000B224F81500681CC5B2032DEFDBC3
:102420009DF8000000F0300020B1102803D02028D3
:102430001BD10DE019E02088400000B220806088A8
:10244000400000B26080A088400000B2A0800CE094
:102450002088C00000B220806088C00000B2608088
:10246000A088C00000B2A08000BF00BF3EBD21B167
:10247000028842F04002028004E002884FF6BF73F7
:102480001A4002807047000010B504462448844278
:1024900008D101218014FFF701FE0021A014FFF7ED
:1024A000FDFD3CE01F48844208D101210014FFF7E4
:1024B000D5FD00212014FFF7D1FD30E01A488442F9
:1024C00008D10121C013FFF7C9FD0021E013FFF778
:1024D000C5FD24E01548844208D101214014FFF7CE
:1024E000DDFD00216014FFF7D9FD18E0104884429B
:1024F00009D101210805FFF7D1FD00214FF480101B
:10250000FFF7CCFD0BE00B48844208D101214805C0
:10251000FFF7C4FD00214FF40010FFF7BFFD10BD11
:102520000030014000380040003C004000340140D1
:1025300000500140005401400246002013890B4026
:102540000BB1012000E000207047014688897047E8
:102550008181704710B50022028802F441520B8835
:102560004C8823438C882343CC8823430C89234302
:102570004C8923438C892343CC8923431A4302800B
:10258000838B4FF2FF74234083830B8A038210BD39
:102590001CB504460E4951F824000121FFF72EFD19
:1025A0000C4830F81400009001208DF80400002041
:1025B0008DF8060001208DF8070002208DF8050037
:1025C000054951F824006946FEF700FC1CBD0000D7
:1025D0009C4C0008944C0008DC000020034931F8B2
:1025E0001010034A52F8202051837047944C000881
:1025F000DC000020034931F81010034A52F8202073
:1026000011837047944C0008DC000020064951F803
:1026100020104969054A32F810205140024A52F808
:102620002020516170470000DC000020944C00081D
:1026300010B50446044A32F81410044A52F8240033
:10264000FEF72FFC10BD0000AC4C0008EC00002091
:1026500030B585B004460D46204951F824000121CB
:10266000FFF7CCFC01218803FFF708FD00208DF85F
:1026700010008DF813001A4830F81400039019491F
:1026800051F8240003A9FEF7A1FB012D24D1164A1D
:10269000115D164A105D00F031F8154830F814004D
:1026A000019000208DF8080008208DF80900012015
:1026B0008DF80A0001A8FEF783FA0E48005D8DF838
:1026C00000000F208DF801008DF8020001208DF828
:1026D00003006846FFF72AFC05B030BDB04C000887
:1026E000AC4C0008EC000020B74C0008B64C0008C9
:1026F000B44C0008B84C00087047000030B5002208
:102700008B071C0F0F2303FA04F20B4B8C1053F8AA
:1027100024309343084C8D1044F8253023468C1008
:1027200053F824308C07240F00FA04F42343024C9E
:102730008D1044F8253030BD0838014010B58AB0FE
:1027400005A8FFF72FFD0DF11A00FFF72FFE08A8CF
:10275000FFF7CAFDBDF92400BDF92210BDF9202004
:10276000BDF91E30CDE90132CDE90310BDF91C00E1
:102770000090BDF91A30BDF91820BDF91610BDF949
:10278000140002F02FF80AB010BD00000CB50020B4
:10279000019000903448006840F48030324908606D
:1027A00000BF3148006800F4003000900198401CE0
:1027B0000190009818B90198B0F5A04FF1D12A48BE
:1027C000006800F4003010B10120009001E000200A
:1027D00000900098012803D124482349091D08606E
:1027E00021484030006840F080501F494031086067
:1027F0001F48006820F440401D4908601A4808300E
:1028000000681949083108600846006808600846F1
:10281000006840F4805008601348006840F0807001
:102820001149086000BF1048006800F000700028DF
:10283000F9D040F202700F4908600B480830006878
:1028400020F003000849083108600846006840F09D
:102850000200086000BF04480830006800F00C0067
:102860000828F8D10CBD0000003802400854410788
:1028700000700040003C024010B500F00FF910BDA0
:1028800010B51548006840F47000134908601348FB
:10289000006840F001001149086000200F4908312C
:1028A00008600E4800680E4908400C4908600D4851
:1028B000091D0860081F006820F48020091F0860B7
:1028C000002006490C310860FFF760FF4FF0006000
:1028D00001498039086010BD88ED00E000380240F1
:1028E000FFFFF6FE1030002410B5002402210C4832
:1028F00000F02CF868B10221094800F015F80848EA
:1029000000F021F884B246F2A8102118044800F023
:1029100081F804480078032801D1FFF70FFF10BDAC
:102920000004004011010020CA430282704721B117
:10293000028842F00102028004E002884FF6FE7332
:102940001A40028070470146486B704730B5024616
:10295000002000230024158A05EA0103958905EA71
:10296000010413B10CB1012000E0002030BD1AB108
:1029700083890B43838102E083898B438381704782
:1029800070B5002400220023058C4FF6FE763540FA
:102990000584028C8388048B4FF68F752C40B51EFE
:1029A0002C400D882C43751E2A408D892A434D8862
:1029B0002A43104DA84202D00F4DA84213D14FF622
:1029C000F7752A40CD892A434FF6FB752A408D883A
:1029D0002A434FF6FF652B404FF6FF552B400D8ADB
:1029E0002B434D8A2B43838004838D684563028487
:1029F00070BD000000000140000401400A460021B3
:102A0000018B4FF6F773194011430183704701851D
:102A1000828270474163704700220288184B9842B7
:102A20000ED0184B98420BD0B0F1804F08D0164B07
:102A3000984205D0154B984202D0154B984204D1CC
:102A40004FF68F731A404B881A43124B984207D0A7
:102A5000114B984204D04FF6FF431A400B891A439A
:102A600002804B68C3620B880385054B984202D0F5
:102A7000044B984201D18B7A0386012383827047ED
:102A80000000014000040140000400400008004034
:102A9000000C004000100040001400400448006892
:102AA00020B103480068401E0149086070470000DB
:102AB0001401002070B504460D46D4F8E4052946FB
:102AC000426820469047002070BD70B504460D4610
:102AD0004FF48970005D022802D0032812D100E073
:102AE00000BF688801280CD100214FF48C7001517F
:102AF000D4F8E4052946826820469047204600F035
:102B000075F804E02946204600F021F800BF00BF18
:102B100070BD2DE9F04106460C46154600272B46B0
:102B2000224600213046FDF707FC3846BDE8F0811B
:102B30002DE9F04106460C46154600272B46224655
:102B400000213046FDF753FC3846BDE8F08170B5F2
:102B500004460D4680212046FDF725FC0021204635
:102B6000FDF721FC204601F0AAF970BD2DE9F041E6
:102B700004460E4615460027C4F89453C4F89053F3
:102B8000032140F2111001552B4632460021204608
:102B9000FDF7D2FB3846BDE8F08170B5044600254C
:102BA000052140F21110015500231A46194620460E
:102BB000FDF7C2FB204601F082F9284670BD2DE9E1
:102BC000F04104460E4615460027C4F83C51C4F8AF
:102BD0003851022140F2111001552B463246002196
:102BE0002046FDF704FC3846BDE8F08170B5044688
:102BF0000025042140F21110015500231A46194600
:102C00002046FDF7F4FB204601F059F9284670BD37
:102C100070B505460E46002E51D105F58E7440F272
:102C20001110405D02283DD1A168E069884211D9A8
:102C3000A168E069401AE061E878012803D1D4E98D
:102C400002100844E060A08B82B22846E168FFF7DA
:102C50006FFF27E0A168206AB0FBF1F201FB1200D0
:102C600078B9A168206A88420BD3D4E90801884268
:102C700007D2002211462846FFF75AFF0020606263
:102C800010E0D5F8E405C06848B14FF48970405DA4
:102C9000032804D1D5F8E405C168284688472846AA
:102CA000FFF77BFF4FF48B70405D012816D128465B
:102CB00000F06AFA00214FF48B7041550EE0D5F810
:102CC000E405406950B14FF48970405D032805D197
:102CD000D5F8E4053146426928469047002070BD8A
:102CE00070B505460E46A6BB05F55D7440F21110A1
:102CF000405D03283DD1A168E069884217D9A168E9
:102D0000E069401AE061E878012803D1D4E90210B3
:102D10000844E060A368E069984201D2E06900E0FD
:102D2000A06882B22846E168FFF7F3FE21E0D5F8FB
:102D3000E405006948B14FF48970405D032804D16F
:102D4000D5F8E4050169284688472846FFF74EFF75
:102D50000FE0FFE7D5F8E405806950B14FF48970C2
:102D6000405D032805D1D5F8E4053146826928463F
:102D70009047002070BD01460020704770B50446A2
:102D80000D46E888012804D029462046FFF7DFFEDB
:102D90001AE04FF48970005D022802D003280DD19B
:102DA00005E0012209492046FFF709FF0BE0012257
:102DB00004F588712046FFF702FF04E0294620460B
:102DC000FFF7C5FE00BF00BF70BD00003800002047
:102DD000F8B504460E467088001208286CD2DFE869
:102DE00000F06B0416226B6B6166A078D4F8EC15CA
:102DF0000A68694690470546F088402804D04FF499
:102E00008970005D012801D10820009059E0A07868
:102E1000D4F8E4158A6A694690470546022169702C
:102E2000C4F8F0554DE0B078062834D2DFE800F061
:102E3000030B131B232BA078D4F8EC154A686946C2
:102E4000904705462CE0A078D4F8EC158A686946CE
:102E50009047054624E0A078D4F8EC15CA68694686
:102E6000904705461CE0A078D4F8EC150A6969463D
:102E70009047054614E0A078D4F8EC154A696946F5
:102E8000904705460CE0A078D4F8EC158A696946AD
:102E90009047054604E031462046FFF758FEF8BD4E
:102EA00000BF0EE031462046FFF751FEF7E73146FE
:102EB0002046FFF74CFEF2E731462046FFF747FE7B
:102EC000EDE700BFBDF8000088B1F08878B1F08868
:102ED000BDF80010884202DDBDF8000000E0F08877
:102EE0000090BDF8002029462046FFF768FE00BF8D
:102EF000D5E70146002002E0421CD0B2491C0A7806
:102F0000002AF9D17047000070B504460D464FF411
:102F10008970005D022802D0032813D100E000BFB1
:102F200000200C4908604FF48C70005920B108460D
:102F3000006840F002000860022206492046FFF7C0
:102F40003EFE04E029462046FFF701FE00BF00BF19
:102F500070BD00003C0000202DE9F04104460D4604
:102F600017460026FCB12046FFF7C3FF022101EB04
:102F7000400038803A783046711CCEB22A54032281
:102F80003046711CCEB22A540AE014F8012B3046A8
:102F9000711CCEB22A5400223046711CCEB22A5483
:102FA00020780028F1D1BDE8F0812DE9F0410446F8
:102FB0000F4615461E46DDF81880204600F050FCEE
:102FC0002046FFF7D8FEC4F8E465C4F8E885C4F8E5
:102FD000EC5539462046FDF7FFFCD4F8E8150868A3
:102FE0008047204600F026FCBDE8F08110B504467D
:102FF000D4F8E405016A20468847002010BD10B5CA
:103000000446D4F8E405416A20468847002010BDF4
:103010007CB505460024284601F046FA002865D014
:10302000284601F04CFA0190019808B900207CBDB7
:103030000198C0F3C04018B12846FDF7D5FA044303
:103040000198C0F3804018B12846FDF72BFA0443DD
:103050000198C0F3400050B100200090009820F08B
:103060000200801C00900098E968486100BF019848
:10307000C00F18B12846FDF737FB04430198C0F391
:10308000C02018B12846FDF7D1FB04430198C0F3D6
:10309000C00018B12846FDF7B3FB04430198C0F304
:1030A000001018B12846FDF753FB04430198C0F304
:1030B000003018B12846FDF70DFC04430198C0F319
:1030C000403018B12846FDF7B9F904430198C0F320
:1030D000005018B12846FDF7CDFC04430198C0F319
:1030E000405018B12846FDF7DBFC044320469EE71C
:1030F00090F8CC250A7090F8CD254A7090F8CE351E
:1031000090F8CF2503EB02224A8090F8D03590F852
:10311000D12503EB02228A8090F8D23590F8D3258E
:1031200003EB0222CA80CB884FF4A0721350012314
:1031300040F211121354704710B504460023402288
:1031400019462046FDF7C4F800234022802120467E
:10315000FDF7BEF801214FF489700155A078D4F82D
:10316000E82551688847002010BD10B50446D4F802
:10317000E8150869804740F21310015D401E0155B3
:1031800003210155002010BD01460348026808696B
:1031900042600020704700000000002010B5044687
:1031A000D4F8E405C06920B1D4F8E405C16920462B
:1031B0008847002010BD70B504460D46A88818BB8E
:1031C000E88808BBA87800F07F064FF48970005D9E
:1031D000032804D129462046FFF7B9FC18E04FF434
:1031E0008A70065531462046FDF7CFF82046FFF796
:1031F000FDFC26B102214FF48970015508E0012140
:103200004FF48970015503E029462046FFF79FFCE3
:1032100070BD70B504460D46D4F8E4052946026831
:1032200020469047D4F8E81588688047002070BD94
:1032300070B504460D46A8783049087008460078F5
:10324000012804DD29462046FFF781FC55E04FF4B4
:103250008970005D022802D0032848D117E0274872
:10326000007880B12548007884F8100103214FF4DC
:1032700089700155214801782046FFF7CAFF204692
:10328000FFF7B4FC02E02046FFF7B0FC34E01B4837
:10329000007880B902214FF48970015517480078F1
:1032A00084F81001154801782046FFF703FC2046FA
:1032B000FFF79CFC1AE094F8100110490978884245
:1032C00011D094F810112046FFF7F4FB0B4800785A
:1032D00084F81001094801782046FFF79AFF20463C
:1032E000FFF784FC02E02046FFF780FC04E029465B
:1032F0002046FFF72CFC00BF00BF70BD400000203F
:10330000F8B504460D460026688801280DD1012134
:103310004FF48C700151D4F8E405294682682046A8
:1033200090472046FFF762FC39E06888022836D1D2
:103330002879A0BB206940680090A8880612062E54
:1033400022D2DFE806F02103090F151B009820F0B8
:1033500070001030009017E0009820F070002030CE
:10336000009011E0009820F07000303000900BE0E9
:10337000009820F070004030009005E0009820F0A8
:1033800070005030009000BF00BF054800990160F8
:1033900001214FF48B7001552046FFF727FCF8BD43
:1033A000000000201CB5044669462046FFF7A0FE39
:1033B0009DF8000000F01F0020B1012807D002286E
:1033C0000FD109E06946204600F016F811E0694681
:1033D000204600F0F9F80CE06946204600F046F877
:1033E00007E09DF8000000F080012046FCF7DBFFBD
:1033F00000BF00BF00201CBD70B505460C4600266E
:1034000060780A2829D2DFE800F01923281E280A4C
:103410000528140F21462846FFF7DAFC22E0214652
:103420002846FFF7C8FE1DE021462846FFF700FFAB
:1034300018E021462846FFF7A1FC13E02146284664
:10344000FFF762FD0EE021462846FFF759FF09E02D
:1034500021462846FFF739FB04E021462846FFF7BE
:1034600076FB00BF00BF304670BD00002DE9F04183
:1034700005460E46002734797078002857D0012879
:103480002BD0032875D14FF48970405D022802D0FB
:1034900003281BD107E02CB1802C03D021462846FD
:1034A000FCF781FF17E0708830B92CB1802C03D075
:1034B00021462846FCF777FFD5F8E40531468268B7
:1034C000284690472846FFF791FB04E031462846FE
:1034D000FFF73DFB00BF00BF70E04FF48970405D17
:1034E000022802D003281BD107E02CB1802C03D086
:1034F00021462846FCF757FF17E0708878B95CB181
:10350000802C09D021462846FCF7BEFED5F8E405FC
:1035100031468268284690472846FFF767FB04E05B
:1035200031462846FFF713FB00BF00BF46E04FF4CB
:103530008970405D022802D0032837D107E02CB102
:10354000802C03D021462846FCF72DFF33E004F001
:103550008000802812D104F07F0000EB800105F587
:103560008E7000EBC100807820B101201549086001
:1035700016E022E000201349086011E004F080000A
:1035800070B904EB840105F55D7000EBC100807833
:1035900018B101200B49086002E0002009490860C9
:1035A000022208492846FFF70AFB04E03146284674
:1035B000FFF7CDFA00BF00BF00E000BF00BF3846F4
:1035C000BDE8F0813400002070B504460D460026A9
:1035D0004FF48970005D032814D1287901280CDC90
:1035E000D4F8E4052946826820469047E88840B927
:1035F0003EB92046FFF7FAFA03E029462046FFF7D6
:10360000A6FA04E029462046FFF7A1FA00BF00BF52
:10361000304670BD10B504464FF48970015D401C02
:1036200001550421401E0155D4F8E815C8688047AB
:10363000002010BD70B505460C462DB9224606493E
:1036400006A0FFF789FC04E02246034903A0FFF728
:1036500083FC014870BD0000B40100205643502097
:10366000436F6E666967000070477047024612201C
:10367000088001487047000050010020704710B1D9
:10368000012802D100E001E000E000BF00BF704768
:103690007047704730B5154800681822B0FBF2F14A
:1036A000481EB0F1807F01D301201BE0481E4FF07F
:1036B000E022506150170F22002807DA13071D0E71
:1036C0000B4B00F00F04241F1D5503E013071C0EC5
:1036D000084B1C5400BF00204FF0E02290610720EF
:1036E0001061002008B100BFFEE730BD20010020BE
:1036F00018ED00E000E400E070B505460C462DB979
:103700002246064906A0FFF727FC04E022460349AB
:1037100003A0FFF721FC014870BD0000B4010020A8
:1037200056435020496E74657266616365000000FF
:103730000246042008800148704700006C01002008
:1037400070B505460C462246024903A0FFF704FC6B
:10375000004870BDB401002053544D6963726F6519
:103760006C656374726F6E696373000070B50546B3
:103770000C462DB92246064906A0FFF7EDFB04E0F2
:10378000224603490CA0FFF7E7FB014870BD00008B
:10379000B401002053544D33322056697274756160
:1037A0006C20436F6D506F727420696E20485320F7
:1037B0006D6F64650000000053544D33322056692C
:1037C000727475616C20436F6D506F727420696EF6
:1037D000204653204D6F64650000000070B505461B
:1037E0000C462DB92246064906A0FFF7B5FB04E0BA
:1037F0002246034907A0FFF7AFFB014870BD000058
:10380000B40100203030303030303030303530428C
:103810000000000030303030303030303035304350
:103820000000000002464320088001487047000065
:103830009400002038B504464FF4C060FEF7B2FB98
:1038400043208DF8000001208DF8010003208DF841
:10385000020001208DF803006846FEF767FB38BDC3
:103860001CB5044601210846FEF7C8FB4FF4D850AA
:10387000009003208DF8050002208DF80400002040
:103880008DF806008DF8070069461F48FDF79EFA7F
:103890000A2208211C48FDF7E1FA0A2209211A48E8
:1038A000FDF7DCFA0A220B211748FDF7D7FA0A22A6
:1038B0000C211548FDF7D2FA4FF4806000900120EA
:1038C0008DF806008DF8070003208DF80500694685
:1038D0000D48FDF77BFA0A2211460B48FDF7BEFAA8
:1038E00001218803FEF7CAFB01218020FEF796FB29
:1038F00001210807FEF7B2FB01210020FEF7A8FE18
:103900000120FDF757F91CBD0000024010B5044628
:103910004FF47A7104FB01F000F001F810BD10B50E
:103920000022C0EB0013DB000724B3FBF4F100BF5F
:10393000531C1A468B4200D910BDF9E73EB5044628
:1039400000250020029001900090207A01283DD1AE
:10395000E068806B0190019820F480300190607ADB
:1039600028B1019820F4801000F580100190019892
:10397000E168886300200290E068C06802900298C5
:1039800020F040000290029820F4800002900298FB
:1039900020F400300290029820F400200290029857
:1039A000E168C860204600F061F9E078012843D161
:1039B000009820F01E000A300090009820F02000AF
:1039C000203000900098E168886035E0E068C068C9
:1039D0000290029820F04000403002900298E16886
:1039E000C860204600F042F900200190019820F4C0
:1039F000803000F580300190019820F4802000F59F
:103A000080200190019820F4002000F50020019012
:103A1000019820F4001000F500100190607A28B1A0
:103A2000019820F4801000F5801001900198E16861
:103A300088631420FFF76AFFE07801280FD1E0685F
:103A400080680090009820F01E000A3000900098D6
:103A500020F02000203000900098E168886028461F
:103A60003EBD70B588B00446002600200790069041
:103A70000590049003900021D4F80C0101602069A6
:103A800000680690069820F4C050069006992069B8
:103A90000160E07A01283DD10321204600F0F8FCC6
:103AA0008020E1684862059880B200F580000590AA
:103AB00005986FF30F00803005900598E1688862E3
:103AC000059800EB1041049861F30F0004900498EE
:103AD00080B200F5000004900498E168C1F8040188
:103AE000049800EB104161F30F000490049880B239
:103AF00004900499E068C0F80811049800EB1041A4
:103B000061F30F000490049880B204900499E06877
:103B1000C0F80C111021204600F070FC204600F087
:103B200047FC00212069016120694161491E20692B
:103B3000816100212069C16100252CE004F1180099
:103B400050F82500006807900798C00F70B100205A
:103B50000790079820F0804000F180400790079878
:103B600020F0006000F10060079001E00020079065
:103B700004F1180050F8250007990160002104F1B4
:103B8000180050F825000161FF2104F1180050F8D9
:103B9000250081606D1C6078A842CFD800252CE0FC
:103BA00004F1540050F82500006801900198C00FFE
:103BB00070B100200190019820F0804000F1804019
:103BC0000190019820F0006000F10060019001E098
:103BD0000020019004F1540050F825000199016083
:103BE000002104F1540050F825000161FF2104F187
:103BF000540050F8250081606D1C6078A842CFD831
:103C000000200390039820F4807000F580700390EA
:103C10002069006903998843084321690861E078B5
:103C200001281DD100200290029820F00100401CC4
:103C30000290029820F00200801C0290402102981D
:103C400061F38A000290029820F4803000F5803001
:103C50000290029861F35940029002992069016331
:103C6000204600F047FB304608B070BDF8B504466A
:103C7000002600250020009000BF0320FFF74FFE24
:103C8000E06800690090681C05461349884201D924
:103C90000020F8BD0098C00F0028EED00025009845
:103CA00020F00100401C00900098E168086100BF0E
:103CB000E06800690090681C05460749884200D901
:103CC00004E0009800F001000028F1D100BF0320BB
:103CD000FFF725FE3046DCE7400D030008B501463E
:103CE000002000220092009A22F00102521C009251
:103CF000CA689268009B9A43CB689A6008BD0EB56B
:103D000001460020002200920A69926802928A69A4
:103D100012680192029AC2F3410232B1012A05D01F
:103D2000022A09D0032A0DD101E000BF00BF019A89
:103D30006FF30A02019205E0019A6FF30A02D21CA6
:103D4000019200BF00BF019B8A691360009A22F4B0
:103D5000807202F5807200920A695268009B9A4351
:103D60001A430B695A600EBDFEB5024600200024BE
:103D70000025029500954D78012D52D193691D685B
:103D800002951D6900954D6955B9009D25F07F0587
:103D90000095009D25F4C01505F50025009516E059
:103DA0008E684D69B54207D98D684D610E7A009DC8
:103DB00066F30605009504E00E7D009D66F306059A
:103DC0000095009D25F4C01505F500250095009D82
:103DD0001D61D578012D06D10F7802F1180555F82F
:103DE00027500E696E61029D25F0806505F18065A2
:103DF0000295029D25F0004505F100450295029DC2
:103E00001D60D578002D59D14D69002D56D00E7802
:103E10000125B5402C4315696D6B25431669756303
:103E20004CE00E7802F1540555F826502D680295A5
:103E30000E7802F1540555F826502D6900954D690C
:103E40005DB90E7A009D66F306050095009D25F488
:103E5000C01505F5002500950CE08D684D610E7AC2
:103E6000009D66F306050095009D25F4C01505F537
:103E7000002500950F7802F1540555F82750009E53
:103E80002E61D578012D06D10F7802F1540555F831
:103E900027500E696E61029D25F0806505F18065F1
:103EA0000295029D25F0004505F1004502950F7829
:103EB00002F1540555F82750029E2E60FEBD0EB546
:103EC00000210191019921F04041A1F1804101912E
:103ED000019921F4C01101F500210191019921F00E
:103EE0007F0118310191019A416D0A61C178012960
:103EF00015D10021009100F2CC51426D5161416D0C
:103F000009680091009921F0004101F10041009100
:103F10004FF080210091009A416D0A6000BF0EBDF4
:103F20003CB5024600200024019400944C78012CFA
:103F30000CD10D7802F1180454F825300D780124C5
:103F4000AC40009D64F30F0500950BE00D7802F185
:103F5000540454F825300D780124AC40009D64F3DE
:103F60001F4500951C680194019CC4F3C034E4B95A
:103F70000D89019C65F30A040194CD78019C65F3D9
:103F8000934401948D79019C65F399540194019CAB
:103F900024F0805404F180540194019C24F40044E2
:103FA00004F500440194019C1C601469E469009DBF
:103FB0002C431569EC613CBD38B503460020002454
:103FC00000944C78012C05D10D7803F1180454F8B5
:103FD000252004E00D7803F1540454F825201468DA
:103FE0000094009C24F400140094CC78032C02D09C
:103FF000CC78022C05D1009C24F0805404F180542C
:104000000094009C146038BD3CB50246002000249A
:10401000019400944C78012C0CD10D7802F1180415
:1040200054F825300D780124AC40009D64F30F0551
:1040300000950BE00D7802F1540454F825300D780A
:104040000124AC40009D64F31F450095019C24F4BD
:1040500000440194019C1C601469E469009DAC4318
:104060001569EC613CBD38B503460A4600200024C2
:1040700000945478012C18D1157803F1180454F8E1
:1040800025100C680094009CE40F2CB1009C24F0D7
:10409000804404F180440094009C24F4001404F54E
:1040A00000140094009C0C600EE0157803F1540499
:1040B00054F825100C680094009C24F4001404F5B6
:1040C00000140094009C0C6038BDFEB505460C46FB
:1040D00000260027002002900190607801287ED100
:1040E000217805F1180050F821000068029021782D
:1040F00005F1180050F8210000690190606948B985
:1041000001986FF3120001900121019861F3DC40E6
:10411000019017E06169019861F3120001906069F4
:10412000401EA1680844B0FBF1F1019861F3DC4046
:104130000190E078012805D1019820F0C04000F1FD
:1041400000500190227805F1180050F822000199E2
:104150000161E878012807D1227805F1180050F8AC
:104160002200216941610DE0E07801280AD06069F0
:1041700040B12178012000FA01F72869406B3843EB
:1041800029694863E078012813D128698068009084
:104190000098C0F3002030B9029820F0005000F1E0
:1041A0000050029005E0029820F0805000F180500D
:1041B0000290029820F0806000F1806002900298E6
:1041C00020F0004000F100400290227805F1180034
:1041D00050F8220002990160E078012800E008E030
:1041E0006CD1A08A83B222782846E16800F048FAB0
:1041F00064E0217805F1540050F821000068029035
:10420000217805F1540050F821000069019060699F
:1042100050B9A168019861F3120001900121019841
:1042200061F3DC40019013E0A068401E616908441E
:10423000A168B0FBF1F1019861F3DC4001900198B5
:10424000C0F3C940A1684843019960F3120101918C
:10425000227805F1540050F8220001990161E878B4
:10426000012806D1227805F1540050F82200216976
:104270004161E07801280ED1607930B1029820F0D8
:10428000005000F10050029005E0029820F08050AC
:1042900000F180500290029820F0806000F1806070
:1042A0000290029820F0004000F100400290227835
:1042B00005F1540050F82200029901603046FEBD1D
:1042C00008B500210091491EC26851606FF080411D
:1042D000C2685161009921F0004101F10041009153
:1042E000009921F4006101F5006100910099C26814
:1042F000916108BD38B50446002500200090E168B2
:1043000088616FF08040E16848612046FFF7D8FF80
:10431000E07820B9009820F010001030009000984C
:1043200020F4006000F500600090009820F48050B8
:1043300000F580500090009820F4005000F50050E7
:104340000090009820F4802000F5802000900098D4
:1043500020F4002000F500200090009820F00800D4
:1043600008300090009820F4801000F58010009034
:10437000009820F4001000F500100090E0688069BB
:10438000009988430843E1688861284638BD08B52C
:104390000146002000220092009A22F00102521CE5
:1043A0000092CA689268009B1A43CB689A6008BD65
:1043B000F8B504460025002600200090009820F063
:1043C0001000103000900098E168086100BFE068BC
:1043D00000690090701C06460749884200D904E035
:1043E0000098C0F300100028F1D100BF0320FFF7B0
:1043F00096FA2846F8BD0000400D0300F8B50446C3
:104400000D460026002700200090009820F0200094
:1044100020300090009865F38A1000900098E168C1
:10442000086100BFE06800690090781C07460749F2
:10443000884200D904E00098C0F340100028F1D170
:1044400000BF0320FFF76BFA3046F8BD400D0300B4
:1044500008B5014600200A6992680092009AC2F3EA
:10446000410232B1012A06D0022A07D0032A07D11D
:1044700002E0032004E000BF022001E0012000BFB1
:1044800000BF08BD0146C868406900F001007047E0
:1044900008B5026912680092009A61F30102009265
:1044A000009B0269136008BD00B502461046FFF785
:1044B000E9FF012801D0012000BD0020FCE70146F2
:1044C0000020CA685069CA68926910407047014666
:1044D000086982690869C069024090B27047014664
:1044E000086982690869C0690240100C7047024679
:1044F00002F1540353F82130986813695B6918403E
:104500007047F0B503460024D01CC71700EB97771F
:10451000BD10D3F8D06000BF03E030680860641CB1
:10452000091DAC42F9D30846F0BD000070B5024643
:104530000C46002300200025D570012595704025EC
:104540009580012C0CD14FF0A0430125D572082590
:104550001570042555709D15D580022515720AE049
:104560004CB9254B0025D5720C25157006255570C4
:104570004FF4A065D580D36003F500651561002177
:1045800010E003F5106505EB411602F1180545F83A
:10459000216003F5306505EB411602F1540545F83D
:1045A0002160491C55788D42EBD803F58065556133
:1045B0004035C2F8CC50002108E003F5A06505EBBA
:1045C000411602F1900545F82160491C15788D428D
:1045D000F3D8002108E003F5805505EB013602F120
:1045E000D00545F82160491C15788D42F3D803F5B4
:1045F0006065C2F80C5170BD00000440F8B5044677
:104600000D460026E068C0680090009820F0005039
:104610000090009820F080400090012D06D1009875
:1046200020F0005000F10050009006E02DB90098F5
:1046300020F0804000F1804000900098E168C86060
:104640003220FFF763F93046F8BD0CB5817AB1B17D
:10465000016989680191019901F0010171B1D0F8F6
:104660000C110091009921F002010091009921F0B4
:1046700001010091009AD0F80C110A6000BF0CBD36
:104680002DE9F04104460026E078B0B9002700206B
:10469000DD1C4FEAE57805EB98784FEAA80704F1AE
:1046A000D00555F822C000BF04E00D68CCF80050DA
:1046B000401C091DB842F8D300BF3046BDE8F08168
:1046C00000BFFEE70346042B15D007DC7BB1012BAE
:1046D0000ED0022B0DD0032B2AD10BE0202B0BD0B8
:1046E000212B0AD0222B21D0232B21D11FE020E027
:1046F0001FE01EE01DE01CE01BE00F480078087082
:104700000D480088000A48700B480068000C88704B
:1047100009480068000EC87007480079087106480B
:104720004079487104488079887102E001E000E036
:1047300000BF00BF002070478C01002030B502464A
:104740000B46002120E012480068401E114C2468EE
:10475000A04206D00E48006828B90E4800687F289D
:1047600001D1002030BD505C0B4C0A4D2D686055C6
:1047700008480068401C074C2060204600688028DC
:1047800001D100202060491C9942DCD30020E9E7D8
:10479000A8010020AC010020D410002030B5024652
:1047A0000B46002111E0505C0A4C0B4D2D68605502
:1047B00009480068401C084C2060491C20460068DD
:1047C000B0F5006F01D1002020609942EBD30020AA
:1047D00030BD00006902002050000020002070471A
:1047E000002070472DE9F04F87B004460D4616466D
:1047F0001F46DDE912ABDDE9108907208DF80400C2
:10480000200A8DF80600E0B28DF80500280A8DF820
:104810000800E8B28DF80700300A8DF80A00F0B2FF
:104820008DF80900380A8DF80C00F8B28DF80B00ED
:104830004FEA18208DF80E0008F0FF008DF80D00EB
:104840004FEA19208DF8100009F0FF008DF80F00D5
:104850004FEA1A208DF812000AF0FF008DF81100BF
:104860004FEA1B208DF814000BF0FF008DF81300A9
:104870001498000A8DF816001498C0B28DF815002F
:104880000D208DF817000A208DF81800152101A8B9
:10489000FFF784FF07B0BDE8F08F02E008C8121FE1
:1048A00008C1002AFAD170477047002001E001C119
:1048B000121F002AFBD170471CB500200190FCF7A5
:1048C0008DFC4248424B434A012100904248FEF78A
:1048D0006CFB0320FDF75CFE0020FDF759FE012074
:1048E000FDF756FE0220FDF753FE0020FDF782FE85
:1048F0000120FDF77FFE01210020FDF7A9FEFCF756
:10490000BDFFFCF7DDFDFDF74DFA5EE021E0334829
:104910000078012803D142F2107000F0AFF92F485F
:104920000078022808D1FDF77BFA0120FDF76EFE22
:1049300042F2107000F0A2F928480078032808D14C
:10494000FDF7B0FA0020FDF761FE42F2107000F0B2
:1049500095F9234800780028D9D04FF47A7000F0F8
:104960008DF900BF0020FDF763FE0128FAD04FF457
:104970007A7000F083F91948007803280FD10120DC
:10498000164908700020FDF729FE0120FDF726FEDC
:104990000220FDF723FE0320FDF720FE0EE00F4866
:1049A0000078012803D102200C49087006E00B486A
:1049B0000078022802D10320084908704FF47A7069
:1049C00000F05CF90020064908709FE770010020A4
:1049D00068000020340100206C0A00201101002032
:1049E000100100202DE9F04106460F461B480078D3
:1049F000012830D11A48006818B9002017490870FA
:104A000029E01748006840280ED91648008884B26B
:104A1000402514480068403012490860104800687A
:104A200040380F4908600FE00E48008884B20C48F7
:104A3000008885B20B48006809490968084409499B
:104A40000860002006490860074802192B468121AA
:104A50003046FBF7CCFC0020BDE8F0815C00002074
:104A600058000020540000206902002070B5044660
:104A70000D4605EB850104F55D7000EBC100008B70
:104A800086B2064831460269054890474023044AE9
:104A900001212046FBF750FC002070BD940100204E
:104AA0002902002070B504460D4681212046FBF7FF
:104AB000C6FB01212046FBF7C2FB82212046FBF703
:104AC000BEFB024948688047002070BD9401002069
:104AD00010B5044608480068FF280AD007488368D4
:104AE000074808490268044800689847FF200249BF
:104AF0000860002010BD000060000020940100202C
:104B0000640000204800002070B505460E460223D0
:104B1000402281212846FBF7DBFB022340220121B2
:104B20002846FBF7D5FB0323082282212846FBF702
:104B3000CFFB084C022020710020607106490868F4
:104B400080474023054A01212846FBF7F5FB00205A
:104B500070BD0000500100209401002029020020B7
:104B600010B50446074801680068401C054A1060FB
:104B7000052905D10020114608602046FCF79EF962
:104B8000002010BDD80000202DE9F04105460C465C
:104B90003A26344F207800F0600070B3202826D1E8
:104BA000E088D8B1207800F0800058B1E2886078C1
:104BB0002D498B682D499847E2882C492846FDF7F6
:104BC000FEFF11E060782A490860E0882949086002
:104BD000E28826492846FDF7C9FF05E060782249AA
:104BE00000228B68114698470020BDE8F0812146DD
:104BF0002846FDF7ACFF0220F7E7FFE760780628BC
:104C000004D00A2816D00B2826D119E0608821216B
:104C1000B1EB202F08D1134F0937E0883A2801DD86
:104C20003A2000E0E0880646324639462846FDF73D
:104C3000C6FF11E0012210492846FDF7C0FF0BE036
:104C4000A078012803DAA0780B49086003E0214628
:104C50002846FDF77CFF00BF00BF00BF00BF00205B
:104C6000C3E700009D0000209401002048000020C0
:104C7000600000206400002044000020002106E0C5
:104C8000002200E0521CB2F57A7FFBDB491C814216
:104C9000F6DB704700100020004000800800000094
:104CA00008000000080000000800000001000000EB
:104CB000010000000100000006000000DC4C0008BC
:104CC00000000020B4010000E4010008E04D0008ED
:104CD000B4010020A4130000AA4800084113E12CED
:104CE0001B08110413A53314089D311B0839041344
:104CF00015361B086B0813ED2F1B08FF04812204D7
:104D0000022C2072FF1B094B60124A1B08890841C4
:104D10001AD10C13E5491B086D085A61144113257B
:104D20003815080902431302011CC032096E1B0129
:104D3000020B130524161001052401100901042497
:104D400002020524061701070582030815FF09045E
:104D50000133020A2E0705010240072A8107611A62
:104D60000C0BA90411591B72A062102D010203043F
:104D70000415060708092201294F29045184BD01A1
:104D8000056924136D36140831371B0841041A6D68
:104D9000041ADD041A35141AF9041A128F311E4050
:104DA00083044057C54E0203010A061212011E0475
:104DB00003090495241A7F041A69041A93041A91AA
:104DC000041A6B041A7D0443802512081BE1475422
:104DD000190413C5461B089D081A3D04C1000000B4
:040000050800018965
:00000001FF
